:03000000020C9C53
:0C0C9C00787FE4F6D8FD75815E020AB096
:1009D600546C633135343320564552332E30362D20
:1009E6003037303631390A00436869702069732020
:1009F600544C433135343320616E64207573652061
:100A060047654A696E48756F277320626F61726425
:100A16000A004368616E3D25303262752C48657860
:100A26003D253034782C566F6C743D2530332E328C
:100A3600660A00436831313D253034782C436831ED
:100A4600323D253034782C436831333D25303478B7
:100A56000A003D3D3D3D3D3D3D3D3D3D3D3D3D3D30
:100A66003D3D3D3D3D3D3D3D3D3D3D3D3D3D3D3DB0
:100A76003D3D3D3D3D3D3D3D3D3D3D3D3D3D3D3DA0
:100A86003D3D3D3D3D3D3D3D3D3D3D3D3D3D3D3D90
:100A96003D3D3D3D3D3D3D3D3D3D3D3D3D3D3D3D80
:0A0AA6003D3D3D3D3D3D3D000A0091
:0E0C8E00759850438920758DFDD28ED2992223
:100C7100E4FFFEE4FDFC0DBD00010CBC03F8BDE882
:0C0C8100F50FBF00010EEF64C84E70E7D5
:010C8D002244
:020C1300AD072B
:100C1500E4FFFED292C293C297D296EDC454F0FD82
:100C2500D292D2937C0AED25E0FD9295EF25E0FF67
:100C3500EE33FEA296E4334207E4D297C297DCE690
:040C4500D292C293F2
:010C49002288
:100B6700E4FF120C137F01120C138E438F447F0294
:100B7700120C138E458F467F03120C138E478F4836
:100B87007F04120C138E498F4A7F05120C138E4B6C
:100B97008F4C7F06120C138E4D8F4E7F07120C134E
:100BA7008E4F8F507F0B120C138E518F527F0C126A
:100BB7000C138E598F5A7F0D120C138E5B8F5CE4CA
:090BC700FF120C138E5D8F5E22FB
:100AB000120C8E7BFF7A0979D61205C97BFF7A0961
:100AC00079EE1205C9120C71120B67E4F522E522CA
:100AD00025E02443F8E6FC08E6FDE41201AE8F268B
:100AE0008E258D248C237F6F7E127D837C40AB26E8
:100AF000AA25A924A8231200037B007AC0797F7855
:100B00004412010C8F268E258D248C237BFF7A0ABC
:100B1000791885222AE52225E02443F8E6F52B08FA
:100B2000E6F52C8F308E2F8D2E8C2D1205C90522C7
:100B3000E522C3940840977BFF7A0A793985592AC0
:100B4000855A2B855B2C855C2D855D2E855E2F124D
:100B500005C97BFF7A0A79581205C97BFF7A0A79A1
:070B6000AE1205C9020AC52F
:100BD000C2AFC297C293C2927E05EF25E0FFDEFA54
:100BE0007E03EF25E0FF92960000D2970000C297A7
:100BF0000000DEEE7E08ED25E0FD92960000D29723
:100C00000000C2970000DEEEC296D293C292D29745
:020C1000D2AF61
:010C120022BF
:10000300EC4D6011E8497017ED33EC3304600DE4F7
:10001300FCFFFEFD22E933E8330470F802021C12F0
:1000230001E758046009E4CC2481500628500902F2
:100033000226284003020223C0E0EB4A7044B98041
:1000430006D0E0FB020212EF4E701CBD8008EBFFEE
:10005300EAFEE9FD80EBE98DF0A4FEE5F00200EC99
:10006300E9CDF9EAFEEBFFEF89F0A4FCE5F0CE89D8
:10007300F0A42EFFE435F0CD89F0A42DFEE435F095
:100083008067EF4E7005BD80D780C3EF8BF0A4ACC3
:10009300F0EE8BF0A42CFCE435F0F8EF8AF0A42CFE
:1000A300E5F038FCE433CB8DF0A42CFCE5F03BF811
:1000B300EE8AF0A42CFCE5F038F8E433CF89F0A401
:1000C3002CFCE5F038CF3400CE89F0A42FFFE5F007
:1000D3003EFEE433C98DF0A42EFEE5F039CD8AF05F
:1000E300A42FFFE5F03EFEE43DFD33D0E0FB5007D7
:1000F3000BBB000F020226EC2CFCEF33FFEE33FEAA
:06010300ED33FD0201FED8
:10010900020226EC5D046005E85904700302021C32
:100119001201E7580460F6EC4860F2EC7004FDFE49
:10012900FF22C860DB2481C85009C39860025006C9
:100139000202239850CAF582E9294B4A7005AB821D
:1001490002021275F0007C1A7880C3EF9BEE9AEDDB
:1001590099400DC3EF9BFFEE9AFEED99FDE842F041
:10016900DC23ACF0D0E0FFD0E0FED0E0FDAB822094
:10017900E7101BEB60BAEC2CFCEF33FFEE33FEED1E
:1001890033FD0201FEE803F830E705C0F075F00021
:10019900EF2FFFEE33FEED33FD40B830E7C280AA02
:1001A90075F020800E75F010800575F0087D007ED1
:1001B900007F003392D530D503120523EC3340106C
:1001C900EF33FFEE33FEED33FDEC33FCD5F0ED22DA
:0E01D900E5F0247EA2D513CC92E7CDCEFF2216
:10056700E53E242AF8E6053E227827300702782A56
:10057700E475F0011205310204CB2000EB7F2ED287
:10058700008018EF540F2490D43440D4FF30040B6C
:10059700EF24BFB41A0050032461FFE53F60021542
:1005A7003F0542E5427002054130070D7827E475A3
:1005B700F001120531EF020511020C4A7403D2074C
:1005C7008003E4C207F53E8B278A288929E4F53F93
:1005D700F541F542E53F60077F201205A280F575DA
:1005E70040FFC201C200C202C203C205C206C2085E
:1005F700120570FF700D3007057F001205B3AF427B
:10060700AE4122B4255FC2D5C204120570FF24D0C3
:10061700B40A00501A75F00A783F30D50508B6FFBE
:100627000106C6A426F620D5047002D20380D92479
:10063700CFB41A00EF5004C2E5D2040208A0D201D9
:1006470080C6D20080C0D20280BCD2D580BAD20583
:1006570080B47F201205A22002077401B53F004035
:10066700F1120567FF1205A20205DBD208D2068048
:1006770095120567FB120567FA120567F94A4B7071
:100687000679977A097BFF20022EE53F602A7E00D4
:100697008E827583001204E460060EEE654070F0EA
:1006A700C2D5EBC0E0EAC0E0E9C0E0EE120900D035
:1006B700E0F9D0E0FAD0E0FB1204CBFF60AAEBC070
:1006C700E0EAC0E0E9C0E01205A2D0E02401F9D0D9
:1006D700E03400FAD0E0FBE5400460DCD540D98087
:1006E70087D20280A21208E360F7E5407001041286
:1006F7000231A940600DE540600914F54012098AEE
:10070700EF60F3EA30E702F404C3995077EAF4257F
:10071700400430E701E404F540800D1208E360C1AE
:10072700EA05402540120231EA783DF630E701E458
:10073700254004D5400420050114120900E4C0E057
:1007470012098A783DE6601320E70714F612058A36
:10075700802204F6D0E014C0E07F0012058AE5404D
:1007670060071205811540800B300503120581D003
:10077700E00205DBD0E00480C51208E360A0E54095
:1007870004120231783DEAF6E540200502600104D3
:0507970024041209001A
:10079C0074FF04C0E012098A12058AE540200502A4
:1007AC006003120581D0E0B540E87F4512059478CE
:1007BC003DE67F2B30E7047F2DF404C0E01205A248
:1007CC00D0E075F00A84C0F012058BD0E012058BD6
:1007DC000205DB791080027908C206C2088008D2B3
:1007EC00D5790A8004790AC2D5E540047002F54037
:1007FC00E4FAFDFEFF120567FC7B082001131205CD
:10080C0067FD7B1030000A120567FE120567FF7B3F
:10081C0020EC3382D592D55013C3E43000069FFFF1
:10082C00E49EFEE42001039DFDE49CFCE4CBF8C2B5
:10083C0001EC700CCFCECDCCE824F8F870F3801717
:10084C00C3EF33FFEE33FEED33FDEC33FCEB33FB48
:10085C00994002FB0FD8E9EB300105F8D0E0C44811
:10086C00B201C0E00AEC4D4E4F78207B0070C2EA1A
:10087C00B5400040BCC0E0120902D0F0D0E020012D
:10088C0004C4C0E0C4B201C0F012058BD0F0D5F0A6
:10089C00EB0205DB12054106785307DF5806494C7D
:1008AC0006454207E34F07EB4407EB49065E430757
:1008BC00F15507224607804506EC4709B750064D0F
:1008CC002D06512E06742B06552306722009A02ADC
:1008DC00060D480000066CE540B4FF037540061297
:1008EC000567FC120567FD120567FE120567FF78A8
:1008FC0036020260790AA2D5200314300509B9101A
:10090C00020404B9080104A2D520060250010420F7
:10091C0002689202B53F005034C0E07F20300319CA
:10092C007F30A20272067205500F120959C202C220
:10093C0006C205C2087F30800F300503E9C0E01203
:10094C0005A2300503D0E0F9D0E0B53FCC30051757
:10095C007F30B9100C1205A27F583004077F7880C5
:10096C0003B908031205A23002057F2D0205A27FF0
:10097C00202008F87F2B2006F322920280CF7F00E4
:10098C00B4070050052436F8E6FF22286E756C6C0F
:10099C002900D2011205673001F8C201783F30D529
:1009AC000108F602060D2D50434958120567240321
:1009BC00B405004001E49009B293120593743A1205
:0A09CC000593D203753F040207DF14
:1001E700E9D2E7C933E833F892D5EDD2E7CD33EC5E
:0701F70033FC5002B2D522D7
:1001FE00EC30E7100FBF000C0EBE00080DBD000462
:10020E000BEB6014A2D5EB13FCED92E7FD2274FF0D
:10021E00FCFDFEFF22E480F8A2D574FF13FC7D8066
:03022E00E480EF7A
:10023100F920E72824F950037907E4F42402FB1894
:10024100DBFDE624FB5014E9600DE4F618E604F644
:0F025100B40A08E4F6D9F57401F60A22C2D522E0
:10026000ED33EC3392D5FA602AB4FF33EDC2E77B6D
:10027000FF60067A027985E4227A02798E20D5041D
:100280007A027989224E614E002B494E46002D4953
:100290004E4600E47A08F608DAFC7B00740722E890
:1002A000C0E0ECC0E0EDC0E0EEC0E0EFC0E0EA7519
:1002B000F010A4CAABF075F04DA42BFBE435F0FCB4
:1002C000EA2410FAEB34C5FBEC34D9FCEDC2E7FFAD
:1002D00075F056A4F42411C5F0F434C58FF0A42AA7
:1002E000E5F03BE43CF620E71412048BD0E0FFD0AD
:1002F000E0FED0E0FDD0E0FC12010C8014F404120A
:10030000048BD0E0FFD0E0FED0E0FDD0E0FC120096
:1003100003D0E0F8E6FAEDD2E7CD33EC332482FBEC
:10032000E4C3CF33CFCE33CECD33CD33DBF37B0736
:1003300075F00A846004F6081B0AE5F0F6088FF0F1
:10034000740AA4FFACF08EF0740AA42CFEACF0503A
:10035000010C8DF0740AA42CFDE435F0F608DBDE08
:03036000740722FD
:1003630002021CE86480F8E933E83360110460F0AA
:10037300ED33EC337009E8FCE9FDEAFEEBFF220400
:1003830060DED3EB9FEA9EE99DE8C2E78CF0C2F7FB
:1003930095F0400CE8CCF8E9CDF9EACEFAEBCFFBC7
:1003A3001201E785D0F05804700320D5B3E8047038
:1003B300075002B2D502022692D5EC0460F7E4CCD2
:1003C300C0E0C398F8603B94186008400DD0E0FB90
:1003D3000201FEE4FBFAC9FC8028E830E406E4C924
:1003E300FBE4CAFCE830E305E4C9CACBFCE85407E4
:1003F3006010F8C3E913F9EA13FAEB13FBEC13FCEF
:10040300D8F130F52FC3E49CFCEF9BFFEE9AFEED91
:1004130099FDD0E0FBEF4E4D4C701222DB0302023C
:1004230023EC2CFCEF33FFEE33FEED33FDED30E731
:10043300EB0201FEEF2BFFEE3AFEED39FDD0E0FBC0
:1004430050130BBB0003020226ED13FDEE13FEEF68
:0804530013FFEC13FC0201FE93
:10045B003F8000004120000042C80000447A0000A9
:10046B00461C400047C35000497424004B1896802B
:10047B004CBEBC205A0E1BCA6753C21C749DC5AE22
:10048B00FB60065407601C23231204B9EB5438603D
:10049B00091204A51204B4120003ECF8EDF9EEFAFC
:1004AB00EFCB22EB1204B480F1543803241C9004DC
:1004BB005BFE93FC0EEE93FD0EEE930ECE93FF229E
:1004CB00BB010689828A83E0225002E722BBFE022F
:0904DB00E32289828A83E4932262
:1004E400BB010CE58229F582E5833AF583E02250CD
:1004F40006E92582F8E622BBFE06E92582F8E22217
:0D050400E58229F582E5833AF583E4932230
:10051100BB010689828A83F0225002F722BBFE01C9
:02052100F322C3
:0E052300C3E49FFFE49EFEE49DFDE49CFC22E9
:10053100FAE6FB0808E6F925F0F618E6CA3AF622CB
:10054100D083D082F8E4937012740193700DA3A349
:1005510093F8740193F5828883E47374029368605D
:06056100EFA3A3A380DF5D
:100C4A00EFB40A07740D120C55740A309811A8995A
:100C5A00B8130CC2983098FDA899C298B811F6300A
:070C6A0099FDC299F59922E2
:00000001FF
